:100000000C942D000C9426010C9426010C942601CE
:100010000C9426010C9426010C9426010C942601C4
:100020000C9426010C9426010C9426010C942601B4
:100030000C9457000C9426010C9426010C94260174
:100040000C9426010C9426010C9426010C94260194
:100050000C94260100600061800011241FBECFE5D2
:10006000D8E0DEBFCDBFE4E5F0E040E017C0B591D9
:10007000A59135912591059107FD0CC0959185912C
:10008000EF01F92FE82F05900D92A217B307D9F7CA
:10009000FE0104C01D92A217B307E1F7E935F4078A
:0E00A00031F70E9409010C945500F894FFCF2F
:1000AE001F920F920FB60F9211242F933F934F93DF
:1000BE005F936F937F938F939F93AF93BF93EF93C2
:1000CE00FF938FB1809360008233B1F018F48133C7
:1000DE0031F038C08333E9F0843341F133C041E06D
:1000EE0066E080E390E00E94EF0040E067E080E38E
:1000FE0090E00E94EF0026C040E066E080E390E0D2
:10010E000E94EF0041E067E080E390E00E94EF0084
:10011E0019C040E066E080E390E00E94EF0040E00E
:10012E0067E080E390E00E94EF000CC041E066E0E3
:10013E0080E390E00E94EF0041E067E080E390E012
:10014E000E94EF00FF91EF91BF91AF919F918F9120
:10015E007F916F915F914F913F912F910F900FBEB5
:06016E000F901F90189590
:10017400FC014130B9F018F0423021F10895818139
:100184008B7F8183218181E090E002C0880F991FD9
:100194006A95E2F78095922F98239183928189231F
:1001A40082830895218181E090E002C0880F991F25
:1001B4006A95E2F7982F9095922391839281892BE7
:1001C40082830895218181E090E002C0880F991F05
:0A01D4006A95E2F7822B81830895FB
:1001DE00FC01413059F4228181E090E002C0880F89
:1001EE00991F6A95E2F7822B82830895928121E00E
:1001FE0030E002C0220F331F6A95E2F720952923C3
:04020E0022830895AA
:1002120042E066E080E390E00E94BA0042E067E0DC
:1002220080E390E00E94BA0042E066E086E390E05C
:0C0232000E94BA000E941F017894FFCFC8
:0E023E008DB183608DB98DB1806C8DB908953E
:04024C000C9400000E
:00000001FF
